Component: ARM Compiler 5.06 update 6 (build 750) Tool: armlink [4d35ed]

==============================================================================

Section Cross References

    scm3_it.o(i.GPIOA_IRQHandler) refers to hyhwgpio.o(i.hyhwGpioA_IRQ) for hyhwGpioA_IRQ
    scm3_it.o(i.GPIOB_IRQHandler) refers to hyhwgpio.o(i.hyhwGpioB_IRQ) for hyhwGpioB_IRQ
    scm3_it.o(i.GPIOC_IRQHandler) refers to hyhwgpio.o(i.hyhwGpioC_IRQ) for hyhwGpioC_IRQ
    scm3_it.o(i.SysTick_Handler) refers to main_test.o(.data) for g_framelosttime
    scm3_it.o(i.Timer1IntHandler) refers to hyhwtimer.o(i.hyhwTimerA_IRQ) for hyhwTimerA_IRQ
    scm3_it.o(i.UART_IRQHandler) refers to hyhwuart.o(i.hyhwUart_IRQ) for hyhwUart_IRQ
    main_test.o(i.cla_adj) refers to main_test.o(i.memset_32bit) for memset_32bit
    main_test.o(i.cla_adj) refers to main_test.o(i.memcpy_32bit) for memcpy_32bit
    main_test.o(i.irq_deal) refers to main_test.o(i.memcpy_8bit) for memcpy_8bit
    main_test.o(i.irq_deal) refers to hyhw_spiflash.o(i.hyhwSpiFlash_RDSR1) for hyhwSpiFlash_RDSR1
    main_test.o(i.irq_deal) refers to hyhwgpio.o(i.hyhwGpio_Read) for hyhwGpio_Read
    main_test.o(i.irq_deal) refers to main_test.o(i.memset_32bit) for memset_32bit
    main_test.o(i.irq_deal) refers to main_test.o(i.memcpy_32bit) for memcpy_32bit
    main_test.o(i.irq_deal) refers to ar8035.o(i.delay_ms) for delay_ms
    main_test.o(i.irq_deal) refers to hyhw_spiflash.o(i.hyhwSpiFlash_WRSR) for hyhwSpiFlash_WRSR
    main_test.o(i.irq_deal) refers to hyhw_spiflash.o(i.hyhwSpiFlash_RDSR2) for hyhwSpiFlash_RDSR2
    main_test.o(i.irq_deal) refers to hyhw_spiflash.o(i.hyhwSpiFlash_Read) for hyhwSpiFlash_Read
    main_test.o(i.irq_deal) refers to main_test.o(.data) for g_pix_en
==============================================================================

Removing Unused input sections from the image.

    Removing retarget.o(i.fgetc), (28 bytes).
    Removing retarget.o(i.fputc), (44 bytes).
    Removing main_test.o(i.cla_adj), (96 bytes).
    Removing main_test.o(i.memcpy_32bit_offset_1), (40 bytes).
    Removing main_test.o(i.pix2xy), (60 bytes).
    Removing main_test.o(i.rd_adj_form_flash_no_calc), (172 bytes).
    Removing ar8035.o(i.AR8035_DelayEn), (76 bytes).
    Removing ar8035.o(i.AR8035_ReadDebug), (26 bytes).
    Removing ar8035.o(i.AR8035_ReadReg), (396 bytes).
    Removing ar8035.o(i.AR8035_WriteDebug), (30 bytes).
    Removing ar8035.o(i.delay_s), (24 bytes).
    Removing ar8035.o(i.delay_us), (18 bytes).
    Removing ar8035.o(i.get_id), (36 bytes).
    Removing ar8035.o(i.get_phy_config), (470 bytes).
    Removing ar8035.o(i.get_phy_config_data), (428 bytes).
    Removing startup_scm3.o(HEAP), (0 bytes).
    Removing core_cm3.o(.emb_text), (32 bytes).
    Removing hyhwuart.o(i.hyhwUart_DeInit), (24 bytes).
==============================================================================

Image Symbol Table

    Local Symbols

    Symbol Name                              Value     Ov Type        Size  Object(Section)

    ../clib/microlib/init/entry.s            0x00000000   Number         0  entry8b.o ABSOLUTE
    ../clib/microlib/init/entry.s            0x00000000   Number         0  entry8a.o ABSOLUTE
    ../clib/microlib/init/entry.s            0x00000000   Number         0  entry7b.o ABSOLUTE
    ../clib/microlib/init/entry.s            0x00000000   Number         0  entry7a.o ABSOLUTE
    ../clib/microlib/init/entry.s            0x00000000   Number         0  entry9a.o ABSOLUTE
    ../clib/microlib/init/entry.s            0x00000000   Number         0  entry5.o ABSOLUTE
    ../clib/microlib/init/entry.s            0x00000000   Number         0  entry2.o ABSOLUTE
    ../clib/microlib/init/entry.s            0x00000000   Number         0  entry11b.o ABSOLUTE
    ../clib/microlib/init/entry.s            0x00000000   Number         0  entry11a.o ABSOLUTE
    ../clib/microlib/init/entry.s            0x00000000   Number         0  entry10b.o ABSOLUTE
    ../clib/microlib/init/entry.s            0x00000000   Number         0  entry10a.o ABSOLUTE
    ../clib/microlib/init/entry.s            0x00000000   Number         0  entry9b.o ABSOLUTE
    ../clib/microlib/init/entry.s            0x00000000   Number         0  entry.o ABSOLUTE
    ../clib/microlib/string/memcpy.c         0x00000000   Number         0  memcpya.o ABSOLUTE
    ../clib/microlib/string/memcpy.c         0x00000000   Number         0  memcpyb.o ABSOLUTE
    ../clib/microlib/string/memset.c         0x00000000   Number         0  memseta.o ABSOLUTE
    ..\..\Driver\src\hyhwDma.c               0x00000000   Number         0  hyhwdma.o ABSOLUTE
    ..\..\Driver\src\hyhwGPIO.c              0x00000000   Number         0  hyhwgpio.o ABSOLUTE
    ..\..\Driver\src\hyhwSpi.c               0x00000000   Number         0  hyhwspi.o ABSOLUTE
    ..\..\Driver\src\hyhwTimer.c             0x00000000   Number         0  hyhwtimer.o ABSOLUTE
    ..\..\Driver\src\hyhwUart.c              0x00000000   Number         0  hyhwuart.o ABSOLUTE
    ..\..\Driver\src\hyhwWatchdog.c          0x00000000   Number         0  hyhwwatchdog.o ABSOLUTE
    ..\..\Driver\src\hyhw_SpiFlash.c         0x00000000   Number         0  hyhw_spiflash.o ABSOLUTE
    ..\..\Driver\src\sys_ctl.c               0x00000000   Number         0  sys_ctl.o ABSOLUTE
    ..\..\Source\src\SCM3_it.c               0x00000000   Number         0  scm3_it.o ABSOLUTE
    ..\..\Source\src\ar8035.c                0x00000000   Number         0  ar8035.o ABSOLUTE
    ..\..\Source\src\core_cm3.c              0x00000000   Number         0  core_cm3.o ABSOLUTE
    ..\..\Source\src\main_test.c             0x00000000   Number         0  main_test.o ABSOLUTE
    ..\..\Source\src\retarget.c              0x00000000   Number         0  retarget.o ABSOLUTE
    ..\..\Source\src\startup_SCM3.s          0x00000000   Number         0  startup_scm3.o ABSOLUTE
    ..\\..\\Source\\src\\core_cm3.c          0x00000000   Number         0  core_cm3.o ABSOLUTE
    dc.s                                     0x00000000   Number         0  dc.o ABSOLUTE
    handlers.s                               0x00000000   Number         0  handlers.o ABSOLUTE
    init.s                                   0x00000000   Number         0  init.o ABSOLUTE
    RESET                                    0x20000000   Section      120  startup_scm3.o(RESET)
    .ARM.Collect$$$$00000000                 0x20000078   Section        0  entry.o(.ARM.Collect$$$$00000000)
    .ARM.Collect$$$$00000001                 0x20000078   Section        4  entry2.o(.ARM.Collect$$$$00000001)
    .ARM.Collect$$$$00000004                 0x2000007c   Section        4  entry5.o(.ARM.Collect$$$$00000004)
    .ARM.Collect$$$$00000008                 0x20000080   Section        0  entry7b.o(.ARM.Collect$$$$00000008)
    .ARM.Collect$$$$0000000A                 0x20000080   Section        0  entry8b.o(.ARM.Collect$$$$0000000A)
    .ARM.Collect$$$$0000000B                 0x20000080   Section        8  entry9a.o(.ARM.Collect$$$$0000000B)
    .ARM.Collect$$$$0000000D                 0x20000088   Section        0  entry10a.o(.ARM.Collect$$$$0000000D)
    .ARM.Collect$$$$0000000F                 0x20000088   Section        0  entry11a.o(.ARM.Collect$$$$0000000F)
    .ARM.Collect$$$$00002712                 0x20000088   Section        4  entry2.o(.ARM.Collect$$$$00002712)
    __lit__00000000                          0x20000088   Data           4  entry2.o(.ARM.Collect$$$$00002712)
    .text                                    0x2000008c   Section       32  startup_scm3.o(.text)
    .text                                    0x200000ac   Section        0  memcpya.o(.text)
    .text                                    0x200000d0   Section        0  memseta.o(.text)
    .text                                    0x200000f4   Section       36  init.o(.text)
    i.AR8035_Init                            0x20000118   Section        0  ar8035.o(i.AR8035_Init)
    i.AR8035_WriteReg                        0x20000178   Section        0  ar8035.o(i.AR8035_WriteReg)
    i.BusFault_Handler                       0x200002b4   Section        0  scm3_it.o(i.BusFault_Handler)
    i.DINTC_IRQHandler                       0x200002b8   Section        0  scm3_it.o(i.DINTC_IRQHandler)
    i.DINTE_IRQHandler                       0x200002bc   Section        0  scm3_it.o(i.DINTE_IRQHandler)
    i.DebugMon_Handler                       0x200002c0   Section        0  scm3_it.o(i.DebugMon_Handler)
    i.FLASH_IRQHandler                       0x200002c4   Section        0  scm3_it.o(i.FLASH_IRQHandler)
    i.GPIOA_IRQHandler                       0x200002c8   Section        0  scm3_it.o(i.GPIOA_IRQHandler)
    i.GPIOB_IRQHandler                       0x200002d0   Section        0  scm3_it.o(i.GPIOB_IRQHandler)
    i.GPIOC_IRQHandler                       0x200002d8   Section        0  scm3_it.o(i.GPIOC_IRQHandler)
    i.HardFault_Handler                      0x200002e0   Section        0  scm3_it.o(i.HardFault_Handler)
    i.MemManage_Handler                      0x200002e4   Section        0  scm3_it.o(i.MemManage_Handler)
    i.NMI_Handler                            0x200002e8   Section        0  scm3_it.o(i.NMI_Handler)
    i.PHY_Config                             0x200002ec   Section        0  ar8035.o(i.PHY_Config)
    i.PendSV_Handler                         0x200003d0   Section        0  scm3_it.o(i.PendSV_Handler)
    i.SVC_Handler                            0x200003d4   Section        0  scm3_it.o(i.SVC_Handler)
    i.SysTick_Handler                        0x200003d8   Section        0  scm3_it.o(i.SysTick_Handler)
    i.Timer1IntHandler                       0x2000040c   Section        0  scm3_it.o(i.Timer1IntHandler)
    i.Timer2IntHandler                       0x20000414   Section        0  scm3_it.o(i.Timer2IntHandler)
    i.UART_IRQHandler                        0x20000418   Section        0  scm3_it.o(i.UART_IRQHandler)
    i.UsageFault_Handler                     0x20000420   Section        0  scm3_it.o(i.UsageFault_Handler)
    i.WWDG_IRQHandler                        0x20000424   Section        0  scm3_it.o(i.WWDG_IRQHandler)
    i.__scatterload_copy                     0x20000430   Section       14  handlers.o(i.__scatterload_copy)
    i.__scatterload_null                     0x2000043e   Section        2  handlers.o(i.__scatterload_null)
    i.__scatterload_zeroinit                 0x20000440   Section       14  handlers.o(i.__scatterload_zeroinit)
    i.delay_ms                               0x2000044e   Section        0  ar8035.o(i.delay_ms)
    i.hyhwDMAC_Init                          0x20000464   Section        0  hyhwdma.o(i.hyhwDMAC_Init)
    i.hyhwDma_Config                         0x20000498   Section        0  hyhwdma.o(i.hyhwDma_Config)
    i.hyhwGpioA_IRQ                          0x200005e8   Section        0  hyhwgpio.o(i.hyhwGpioA_IRQ)
    i.hyhwGpioB_IRQ                          0x200005ea   Section        0  hyhwgpio.o(i.hyhwGpioB_IRQ)
    i.hyhwGpioC_IRQ                          0x200005ec   Section        0  hyhwgpio.o(i.hyhwGpioC_IRQ)
    i.hyhwGpio_IntClr                        0x20000688   Section        0  hyhwgpio.o(i.hyhwGpio_IntClr)
    i.hyhwGpio_IntConfig                     0x20000694   Section        0  hyhwgpio.o(i.hyhwGpio_IntConfig)
    i.hyhwGpio_Read                          0x2000073c   Section        0  hyhwgpio.o(i.hyhwGpio_Read)
    i.hyhwGpio_Read_Port                     0x2000074e   Section        0  hyhwgpio.o(i.hyhwGpio_Read_Port)
    i.hyhwGpio_SetHigh                       0x20000758   Section        0  hyhwgpio.o(i.hyhwGpio_SetHigh)
    i.hyhwGpio_SetIn                         0x20000764   Section        0  hyhwgpio.o(i.hyhwGpio_SetIn)
    i.hyhwGpio_SetLow                        0x20000770   Section        0  hyhwgpio.o(i.hyhwGpio_SetLow)
    i.hyhwGpio_SetOut                        0x2000077c   Section        0  hyhwgpio.o(i.hyhwGpio_SetOut)
    i.hyhwSpiFlash_EraseSector               0x20000788   Section        0  hyhw_spiflash.o(i.hyhwSpiFlash_EraseSector)
    i.hyhwSpiFlash_Init                      0x200007d4   Section        0  hyhw_spiflash.o(i.hyhwSpiFlash_Init)
    i.hyhwSpiFlash_RDSR1                     0x2000080c   Section        0  hyhw_spiflash.o(i.hyhwSpiFlash_RDSR1)
    i.hyhwSpiFlash_RDSR2                     0x20000854   Section        0  hyhw_spiflash.o(i.hyhwSpiFlash_RDSR2)
    i.hyhwSpiFlash_Read                      0x2000089c   Section        0  hyhw_spiflash.o(i.hyhwSpiFlash_Read)
    i.hyhwSpiFlash_ReadBuffer                0x200008b0   Section        0  hyhw_spiflash.o(i.hyhwSpiFlash_ReadBuffer)
    i.hyhwSpiFlash_ReadID                    0x20000a18   Section        0  hyhw_spiflash.o(i.hyhwSpiFlash_ReadID)
    i.hyhwSpiFlash_WRSR                      0x20000a4c   Section        0  hyhw_spiflash.o(i.hyhwSpiFlash_WRSR)
    i.hyhwSpiFlash_WaitForWriteEnd           0x20000a9c   Section        0  hyhw_spiflash.o(i.hyhwSpiFlash_WaitForWriteEnd)
    i.hyhwSpiFlash_WriteDisable              0x20000ad0   Section        0  hyhw_spiflash.o(i.hyhwSpiFlash_WriteDisable)
    i.hyhwSpiFlash_WriteEnable               0x20000af8   Section        0  hyhw_spiflash.o(i.hyhwSpiFlash_WriteEnable)
    i.hyhwSpiFlash_WritePage                 0x20000b20   Section        0  hyhw_spiflash.o(i.hyhwSpiFlash_WritePage)
    i.hyhwTimerA_IRQ                         0x20000bac   Section        0  hyhwtimer.o(i.hyhwTimerA_IRQ)
    i.hyhwUart_IRQ                           0x20000bcc   Section        0  hyhwuart.o(i.hyhwUart_IRQ)
    i.hyhwUart_SendCh                        0x20000bec   Section        0  hyhwuart.o(i.hyhwUart_SendCh)
    i.irq_deal                               0x20000c08   Section        0  main_test.o(i.irq_deal)
    i.main                                   0x200014d0   Section        0  main_test.o(i.main)
    i.memcpy_32bit                           0x20001984   Section        0  main_test.o(i.memcpy_32bit)
    i.memcpy_32bit_offset                    0x2000199c   Section        0  main_test.o(i.memcpy_32bit_offset)
    i.memcpy_8bit                            0x200019c0   Section        0  main_test.o(i.memcpy_8bit)
    i.memset_32bit                           0x200019dc   Section        0  main_test.o(i.memset_32bit)
    i.rd_adj_form_flash_to_64x64             0x200019f0   Section        0  main_test.o(i.rd_adj_form_flash_to_64x64)
    i.rd_adj_form_flash_to_64x64_1           0x20001a08   Section        0  main_test.o(i.rd_adj_form_flash_to_64x64_1)
    i.rd_adj_form_flash_to_64x64_2           0x20001b14   Section        0  main_test.o(i.rd_adj_form_flash_to_64x64_2)
    i.read_flash                             0x20001cc8   Section        0  main_test.o(i.read_flash)
    i.set_phy_config                         0x20001d3e   Section        0  ar8035.o(i.set_phy_config)
    .constdata                               0x20001efa   Section     1024  hyhwgpio.o(.constdata)
    .data                                    0x20006000   Section       92  main_test.o(.data)
    .data                                    0x2000605c   Section        1  ar8035.o(.data)
    .bss                                     0x20006060   Section     1024  main_test.o(.bss)
    STACK                                    0x20006460   Section     1024  startup_scm3.o(STACK)

    Global Symbols

    Symbol Name                              Value     Ov Type        Size  Object(Section)

    BuildAttributes$$THM_ISAv4$P$D$K$B$S$PE$A:L22UL41UL21$X:L11$S22US41US21$IEEE1$IW$USESV6$~STKCKD$USESV7$~SHL$OSPACE$EBA8$MICROLIB$REQ8$PRES8$EABIv2 0x00000000   Number         0  anon$$obj.o ABSOLUTE
    __ARM_use_no_argv                        0x00000000   Number         0  main_test.o ABSOLUTE
    __cpp_initialize__aeabi_                  - Undefined Weak Reference
    __cxa_finalize                            - Undefined Weak Reference
    __decompress                              - Undefined Weak Reference
    _clock_init                               - Undefined Weak Reference
    _microlib_exit                            - Undefined Weak Reference
    __Vectors_Size                           0x00000078   Number         0  startup_scm3.o ABSOLUTE
    __Vectors                                0x20000000   Data           4  startup_scm3.o(RESET)
    __Vectors_End                            0x20000078   Data           0  startup_scm3.o(RESET)
    __main                                   0x20000079   Thumb Code     0  entry.o(.ARM.Collect$$$$00000000)
    _main_stk                                0x20000079   Thumb Code     0  entry2.o(.ARM.Collect$$$$00000001)
    _main_scatterload                        0x2000007d   Thumb Code     0  entry5.o(.ARM.Collect$$$$00000004)
    __main_after_scatterload                 0x20000081   Thumb Code     0  entry5.o(.ARM.Collect$$$$00000004)
    _main_clock                              0x20000081   Thumb Code     0  entry7b.o(.ARM.Collect$$$$00000008)
    _main_cpp_init                           0x20000081   Thumb Code     0  entry8b.o(.ARM.Collect$$$$0000000A)
    _main_init                               0x20000081   Thumb Code     0  entry9a.o(.ARM.Collect$$$$0000000B)
    __rt_final_cpp                           0x20000089   Thumb Code     0  entry10a.o(.ARM.Collect$$$$0000000D)
    __rt_final_exit                          0x20000089   Thumb Code     0  entry11a.o(.ARM.Collect$$$$0000000F)
    SystemInit_ExtMemCtl                     0x2000008d   Thumb Code     2  startup_scm3.o(.text)
    Reset_Handler                            0x2000008f   Thumb Code     4  startup_scm3.o(.text)
    DMAIntHandler                            0x200000a5   Thumb Code     0  startup_scm3.o(.text)
    __aeabi_memcpy                           0x200000ad   Thumb Code    36  memcpya.o(.text)
    __aeabi_memcpy4                          0x200000ad   Thumb Code     0  memcpya.o(.text)
    __aeabi_memcpy8                          0x200000ad   Thumb Code     0  memcpya.o(.text)
    __aeabi_memset                           0x200000d1   Thumb Code    14  memseta.o(.text)
    __aeabi_memset4                          0x200000d1   Thumb Code     0  memseta.o(.text)
    __aeabi_memset8                          0x200000d1   Thumb Code     0  memseta.o(.text)
    __aeabi_memclr                           0x200000df   Thumb Code     4  memseta.o(.text)
    __aeabi_memclr4                          0x200000df   Thumb Code     0  memseta.o(.text)
    __aeabi_memclr8                          0x200000df   Thumb Code     0  memseta.o(.text)
    _memset$wrapper                          0x200000e3   Thumb Code    18  memseta.o(.text)
    __scatterload                            0x200000f5   Thumb Code    28  init.o(.text)
    __scatterload_rt2                        0x200000f5   Thumb Code     0  init.o(.text)
    AR8035_Init                              0x20000119   Thumb Code    84  ar8035.o(i.AR8035_Init)
    AR8035_WriteReg                          0x20000179   Thumb Code   310  ar8035.o(i.AR8035_WriteReg)
    BusFault_Handler                         0x200002b5   Thumb Code     4  scm3_it.o(i.BusFault_Handler)
    DINTC_IRQHandler                         0x200002b9   Thumb Code     4  scm3_it.o(i.DINTC_IRQHandler)
    DINTE_IRQHandler                         0x200002bd   Thumb Code     4  scm3_it.o(i.DINTE_IRQHandler)
    DebugMon_Handler                         0x200002c1   Thumb Code     4  scm3_it.o(i.DebugMon_Handler)
    FLASH_IRQHandler                         0x200002c5   Thumb Code     4  scm3_it.o(i.FLASH_IRQHandler)
    GPIOA_IRQHandler                         0x200002c9   Thumb Code     8  scm3_it.o(i.GPIOA_IRQHandler)
    GPIOB_IRQHandler                         0x200002d1   Thumb Code     8  scm3_it.o(i.GPIOB_IRQHandler)
    GPIOC_IRQHandler                         0x200002d9   Thumb Code     8  scm3_it.o(i.GPIOC_IRQHandler)
    HardFault_Handler                        0x200002e1   Thumb Code     4  scm3_it.o(i.HardFault_Handler)
    MemManage_Handler                        0x200002e5   Thumb Code     4  scm3_it.o(i.MemManage_Handler)
    NMI_Handler                              0x200002e9   Thumb Code     2  scm3_it.o(i.NMI_Handler)
    PHY_Config                               0x200002ed   Thumb Code   206  ar8035.o(i.PHY_Config)
    PendSV_Handler                           0x200003d1   Thumb Code     4  scm3_it.o(i.PendSV_Handler)
    SVC_Handler                              0x200003d5   Thumb Code     4  scm3_it.o(i.SVC_Handler)
    SysTick_Handler                          0x200003d9   Thumb Code    42  scm3_it.o(i.SysTick_Handler)
    Timer1IntHandler                         0x2000040d   Thumb Code     8  scm3_it.o(i.Timer1IntHandler)
    Timer2IntHandler                         0x20000415   Thumb Code     4  scm3_it.o(i.Timer2IntHandler)
    UART_IRQHandler                          0x20000419   Thumb Code     8  scm3_it.o(i.UART_IRQHandler)
    UsageFault_Handler                       0x20000421   Thumb Code     4  scm3_it.o(i.UsageFault_Handler)
    WWDG_IRQHandler                          0x20000425   Thumb Code     8  scm3_it.o(i.WWDG_IRQHandler)
    __scatterload_copy                       0x20000431   Thumb Code    14  handlers.o(i.__scatterload_copy)
    __scatterload_null                       0x2000043f   Thumb Code     2  handlers.o(i.__scatterload_null)
    __scatterload_zeroinit                   0x20000441   Thumb Code    14  handlers.o(i.__scatterload_zeroinit)
    delay_ms                                 0x2000044f   Thumb Code    20  ar8035.o(i.delay_ms)
    hyhwDMAC_Init                            0x20000465   Thumb Code    48  hyhwdma.o(i.hyhwDMAC_Init)
    hyhwDma_Config                           0x20000499   Thumb Code   330  hyhwdma.o(i.hyhwDma_Config)
    hyhwGpioA_IRQ                            0x200005e9   Thumb Code     2  hyhwgpio.o(i.hyhwGpioA_IRQ)
    hyhwGpioB_IRQ                            0x200005eb   Thumb Code     2  hyhwgpio.o(i.hyhwGpioB_IRQ)
    hyhwGpioC_IRQ                            0x200005ed   Thumb Code   126  hyhwgpio.o(i.hyhwGpioC_IRQ)
    hyhwGpio_IntClr                          0x20000689   Thumb Code    12  hyhwgpio.o(i.hyhwGpio_IntClr)
    hyhwGpio_IntConfig                       0x20000695   Thumb Code   168  hyhwgpio.o(i.hyhwGpio_IntConfig)
    hyhwGpio_Read                            0x2000073d   Thumb Code    18  hyhwgpio.o(i.hyhwGpio_Read)
    hyhwGpio_Read_Port                       0x2000074f   Thumb Code    10  hyhwgpio.o(i.hyhwGpio_Read_Port)
    hyhwGpio_SetHigh                         0x20000759   Thumb Code    12  hyhwgpio.o(i.hyhwGpio_SetHigh)
    hyhwGpio_SetIn                           0x20000765   Thumb Code    12  hyhwgpio.o(i.hyhwGpio_SetIn)
    hyhwGpio_SetLow                          0x20000771   Thumb Code    12  hyhwgpio.o(i.hyhwGpio_SetLow)
    hyhwGpio_SetOut                          0x2000077d   Thumb Code    12  hyhwgpio.o(i.hyhwGpio_SetOut)
    hyhwSpiFlash_EraseSector                 0x20000789   Thumb Code    72  hyhw_spiflash.o(i.hyhwSpiFlash_EraseSector)
    hyhwSpiFlash_Init                        0x200007d5   Thumb Code    50  hyhw_spiflash.o(i.hyhwSpiFlash_Init)
    hyhwSpiFlash_RDSR1                       0x2000080d   Thumb Code    66  hyhw_spiflash.o(i.hyhwSpiFlash_RDSR1)
    hyhwSpiFlash_RDSR2                       0x20000855   Thumb Code    66  hyhw_spiflash.o(i.hyhwSpiFlash_RDSR2)
    hyhwSpiFlash_Read                        0x2000089d   Thumb Code    20  hyhw_spiflash.o(i.hyhwSpiFlash_Read)
    hyhwSpiFlash_ReadBuffer                  0x200008b1   Thumb Code   350  hyhw_spiflash.o(i.hyhwSpiFlash_ReadBuffer)
    hyhwSpiFlash_ReadID                      0x20000a19   Thumb Code    48  hyhw_spiflash.o(i.hyhwSpiFlash_ReadID)
    hyhwSpiFlash_WRSR                        0x20000a4d   Thumb Code    70  hyhw_spiflash.o(i.hyhwSpiFlash_WRSR)
    hyhwSpiFlash_WaitForWriteEnd             0x20000a9d   Thumb Code    48  hyhw_spiflash.o(i.hyhwSpiFlash_WaitForWriteEnd)
    hyhwSpiFlash_WriteDisable                0x20000ad1   Thumb Code    34  hyhw_spiflash.o(i.hyhwSpiFlash_WriteDisable)
    hyhwSpiFlash_WriteEnable                 0x20000af9   Thumb Code    34  hyhw_spiflash.o(i.hyhwSpiFlash_WriteEnable)
    hyhwSpiFlash_WritePage                   0x20000b21   Thumb Code   136  hyhw_spiflash.o(i.hyhwSpiFlash_WritePage)
    hyhwTimerA_IRQ                           0x20000bad   Thumb Code    26  hyhwtimer.o(i.hyhwTimerA_IRQ)
    hyhwUart_IRQ                             0x20000bcd   Thumb Code    28  hyhwuart.o(i.hyhwUart_IRQ)
    hyhwUart_SendCh                          0x20000bed   Thumb Code    24  hyhwuart.o(i.hyhwUart_SendCh)
    irq_deal                                 0x20000c09   Thumb Code  2248  main_test.o(i.irq_deal)
    main                                     0x200014d1   Thumb Code  1190  main_test.o(i.main)
    memcpy_32bit                             0x20001985   Thumb Code    24  main_test.o(i.memcpy_32bit)
    memcpy_32bit_offset                      0x2000199d   Thumb Code    36  main_test.o(i.memcpy_32bit_offset)
    memcpy_8bit                              0x200019c1   Thumb Code    28  main_test.o(i.memcpy_8bit)
    memset_32bit                             0x200019dd   Thumb Code    20  main_test.o(i.memset_32bit)
    rd_adj_form_flash_to_64x64               0x200019f1   Thumb Code    20  main_test.o(i.rd_adj_form_flash_to_64x64)
    rd_adj_form_flash_to_64x64_1             0x20001a09   Thumb Code   256  main_test.o(i.rd_adj_form_flash_to_64x64_1)
    rd_adj_form_flash_to_64x64_2             0x20001b15   Thumb Code   422  main_test.o(i.rd_adj_form_flash_to_64x64_2)
    read_flash                               0x20001cc9   Thumb Code   118  main_test.o(i.read_flash)
    set_phy_config                           0x20001d3f   Thumb Code   444  ar8035.o(i.set_phy_config)
    data_ahb                                 0x20001efa   Data        1024  hyhwgpio.o(.constdata)
    Region$$Table$$Base                      0x200022fc   Number         0  anon$$obj.o(Region$$Table)
    Region$$Table$$Limit                     0x2000231c   Number         0  anon$$obj.o(Region$$Table)
    flash_protect                            0x20006000   Data           4  main_test.o(.data)
    flash_sr1                                0x20006004   Data           1  main_test.o(.data)
    flash_sr2                                0x20006005   Data           1  main_test.o(.data)
    sdram_data_crc                           0x20006008   Data           4  main_test.o(.data)
    g_framelosttime                          0x2000600c   Data           4  main_test.o(.data)
    g_framesteptime                          0x20006010   Data           4  main_test.o(.data)
    g_frame_step                             0x20006014   Data           4  main_test.o(.data)
    g_framelostblack                         0x20006018   Data           4  main_test.o(.data)
    g_time                                   0x2000601c   Data           4  main_test.o(.data)
    g_time_test                              0x20006020   Data           4  main_test.o(.data)
    g_time_test_1                            0x20006024   Data           4  main_test.o(.data)
    g_time_test_2                            0x20006028   Data           4  main_test.o(.data)
    key_press                                0x2000602c   Data           4  main_test.o(.data)
    key_state                                0x20006030   Data           4  main_test.o(.data)
    irq_state                                0x20006034   Data           1  main_test.o(.data)
    g_coe_mode                               0x20006035   Data           1  main_test.o(.data)
    g_win_col_num                            0x20006036   Data           2  main_test.o(.data)
    g_win_row_num                            0x20006038   Data           2  main_test.o(.data)
    g_sector_width                           0x2000603a   Data           2  main_test.o(.data)
    g_pix_en                                 0x2000603c   Data           1  main_test.o(.data)
    g_module_width                           0x2000603d   Data           1  main_test.o(.data)
    g_module_height                          0x2000603e   Data           1  main_test.o(.data)
    g_module_col                             0x20006040   Data           2  main_test.o(.data)
    g_gap_center                             0x20006042   Data           2  main_test.o(.data)
    g_gap_en                                 0x20006044   Data           1  main_test.o(.data)
    g_box_dir                                0x20006048   Data           4  main_test.o(.data)
    id                                       0x2000604c   Data           8  main_test.o(.data)
    lock                                     0x20006054   Data           8  main_test.o(.data)
    delay_d                                  0x2000605c   Data           1  ar8035.o(.data)
    data_rgb                                 0x20006060   Data        1024  main_test.o(.bss)
    __initial_sp                             0x20006860   Data           0  startup_scm3.o(STACK)



==============================================================================

Memory Map of the image

  Image Entry point : 0x20000079

  Load Region LR_IROM1 (Base: 0x20000000, Size: 0x0000237c, Max: 0x00006000, ABSOLUTE)

    Execution Region ER_IROM1 (Base: 0x20000000, Size: 0x0000231c, Max: 0x00006000, ABSOLUTE)

    Base Addr    Size         Type   Attr      Idx    E Section Name        Object

    0x20000000   0x00000078   Data   RO          401    RESET               startup_scm3.o
    0x20000078   0x00000000   Code   RO          764  * .ARM.Collect$$$$00000000  mc_w.l(entry.o)
    0x20000078   0x00000004   Code   RO          773    .ARM.Collect$$$$00000001  mc_w.l(entry2.o)
    0x2000007c   0x00000004   Code   RO          776    .ARM.Collect$$$$00000004  mc_w.l(entry5.o)
    0x20000080   0x00000000   Code   RO          778    .ARM.Collect$$$$00000008  mc_w.l(entry7b.o)
    0x20000080   0x00000000   Code   RO          780    .ARM.Collect$$$$0000000A  mc_w.l(entry8b.o)
    0x20000080   0x00000008   Code   RO          781    .ARM.Collect$$$$0000000B  mc_w.l(entry9a.o)
    0x20000088   0x00000000   Code   RO          783    .ARM.Collect$$$$0000000D  mc_w.l(entry10a.o)
    0x20000088   0x00000000   Code   RO          785    .ARM.Collect$$$$0000000F  mc_w.l(entry11a.o)
    0x20000088   0x00000004   Code   RO          774    .ARM.Collect$$$$00002712  mc_w.l(entry2.o)
    0x2000008c   0x00000020   Code   RO          402    .text               startup_scm3.o
    0x200000ac   0x00000024   Code   RO          767    .text               mc_w.l(memcpya.o)
    0x200000d0   0x00000024   Code   RO          769    .text               mc_w.l(memseta.o)
    0x200000f4   0x00000024   Code   RO          787    .text               mc_w.l(init.o)
    0x20000118   0x00000060   Code   RO          296    i.AR8035_Init       ar8035.o
    0x20000178   0x0000013c   Code   RO          300    i.AR8035_WriteReg   ar8035.o
    0x200002b4   0x00000004   Code   RO            1    i.BusFault_Handler  scm3_it.o
    0x200002b8   0x00000004   Code   RO            2    i.DINTC_IRQHandler  scm3_it.o
    0x200002bc   0x00000004   Code   RO            3    i.DINTE_IRQHandler  scm3_it.o
    0x200002c0   0x00000004   Code   RO            4    i.DebugMon_Handler  scm3_it.o
    0x200002c4   0x00000004   Code   RO            5    i.FLASH_IRQHandler  scm3_it.o
    0x200002c8   0x00000008   Code   RO            6    i.GPIOA_IRQHandler  scm3_it.o
    0x200002d0   0x00000008   Code   RO            7    i.GPIOB_IRQHandler  scm3_it.o
    0x200002d8   0x00000008   Code   RO            8    i.GPIOC_IRQHandler  scm3_it.o
    0x200002e0   0x00000004   Code   RO            9    i.HardFault_Handler  scm3_it.o
    0x200002e4   0x00000004   Code   RO           10    i.MemManage_Handler  scm3_it.o
    0x200002e8   0x00000002   Code   RO           11    i.NMI_Handler       scm3_it.o
    0x200002ea   0x00000002   PAD
    0x200002ec   0x000000e4   Code   RO          301    i.PHY_Config        ar8035.o
    0x200003d0   0x00000004   Code   RO           12    i.PendSV_Handler    scm3_it.o
    0x200003d4   0x00000004   Code   RO           13    i.SVC_Handler       scm3_it.o
    0x200003d8   0x00000034   Code   RO           14    i.SysTick_Handler   scm3_it.o
    0x2000040c   0x00000008   Code   RO           15    i.Timer1IntHandler  scm3_it.o
    0x20000414   0x00000004   Code   RO           16    i.Timer2IntHandler  scm3_it.o
    0x20000418   0x00000008   Code   RO           17    i.UART_IRQHandler   scm3_it.o
    0x20000420   0x00000004   Code   RO           18    i.UsageFault_Handler  scm3_it.o
    0x20000424   0x0000000c   Code   RO           19    i.WWDG_IRQHandler   scm3_it.o
    0x20000430   0x0000000e   Code   RO          791    i.__scatterload_copy  mc_w.l(handlers.o)
    0x2000043e   0x00000002   Code   RO          792    i.__scatterload_null  mc_w.l(handlers.o)
    0x20000440   0x0000000e   Code   RO          793    i.__scatterload_zeroinit  mc_w.l(handlers.o)
    0x2000044e   0x00000014   Code   RO          302    i.delay_ms          ar8035.o
    0x20000462   0x00000002   PAD
    0x20000464   0x00000034   Code   RO          569    i.hyhwDMAC_Init     hyhwdma.o
    0x20000498   0x00000150   Code   RO          570    i.hyhwDma_Config    hyhwdma.o
    0x200005e8   0x00000002   Code   RO          480    i.hyhwGpioA_IRQ     hyhwgpio.o
    0x200005ea   0x00000002   Code   RO          481    i.hyhwGpioB_IRQ     hyhwgpio.o
    0x200005ec   0x0000009c   Code   RO          482    i.hyhwGpioC_IRQ     hyhwgpio.o
    0x20000688   0x0000000c   Code   RO          483    i.hyhwGpio_IntClr   hyhwgpio.o
    0x20000694   0x000000a8   Code   RO          484    i.hyhwGpio_IntConfig  hyhwgpio.o
    0x2000073c   0x00000012   Code   RO          485    i.hyhwGpio_Read     hyhwgpio.o
    0x2000074e   0x0000000a   Code   RO          486    i.hyhwGpio_Read_Port  hyhwgpio.o
    0x20000758   0x0000000c   Code   RO          487    i.hyhwGpio_SetHigh  hyhwgpio.o
    0x20000764   0x0000000c   Code   RO          488    i.hyhwGpio_SetIn    hyhwgpio.o
    0x20000770   0x0000000c   Code   RO          490    i.hyhwGpio_SetLow   hyhwgpio.o
    0x2000077c   0x0000000c   Code   RO          491    i.hyhwGpio_SetOut   hyhwgpio.o
    0x20000788   0x0000004c   Code   RO          629    i.hyhwSpiFlash_EraseSector  hyhw_spiflash.o
    0x200007d4   0x00000038   Code   RO          631    i.hyhwSpiFlash_Init  hyhw_spiflash.o
    0x2000080c   0x00000048   Code   RO          632    i.hyhwSpiFlash_RDSR1  hyhw_spiflash.o
    0x20000854   0x00000048   Code   RO          633    i.hyhwSpiFlash_RDSR2  hyhw_spiflash.o
    0x2000089c   0x00000014   Code   RO          636    i.hyhwSpiFlash_Read  hyhw_spiflash.o
    0x200008b0   0x00000168   Code   RO          637    i.hyhwSpiFlash_ReadBuffer  hyhw_spiflash.o
    0x20000a18   0x00000034   Code   RO          638    i.hyhwSpiFlash_ReadID  hyhw_spiflash.o
    0x20000a4c   0x00000050   Code   RO          640    i.hyhwSpiFlash_WRSR  hyhw_spiflash.o
    0x20000a9c   0x00000034   Code   RO          641    i.hyhwSpiFlash_WaitForWriteEnd  hyhw_spiflash.o
    0x20000ad0   0x00000028   Code   RO          642    i.hyhwSpiFlash_WriteDisable  hyhw_spiflash.o
    0x20000af8   0x00000028   Code   RO          643    i.hyhwSpiFlash_WriteEnable  hyhw_spiflash.o
    0x20000b20   0x0000008c   Code   RO          644    i.hyhwSpiFlash_WritePage  hyhw_spiflash.o
    0x20000bac   0x00000020   Code   RO          453    i.hyhwTimerA_IRQ    hyhwtimer.o
    0x20000bcc   0x00000020   Code   RO          418    i.hyhwUart_IRQ      hyhwuart.o
    0x20000bec   0x0000001c   Code   RO          420    i.hyhwUart_SendCh   hyhwuart.o
    0x20000c08   0x000008c8   Code   RO          178    i.irq_deal          main_test.o
    0x200014d0   0x000004b4   Code   RO          179    i.main              main_test.o
    0x20001984   0x00000018   Code   RO          180    i.memcpy_32bit      main_test.o
    0x2000199c   0x00000024   Code   RO          181    i.memcpy_32bit_offset  main_test.o
    0x200019c0   0x0000001c   Code   RO          183    i.memcpy_8bit       main_test.o
    0x200019dc   0x00000014   Code   RO          184    i.memset_32bit      main_test.o
    0x200019f0   0x00000018   Code   RO          187    i.rd_adj_form_flash_to_64x64  main_test.o
    0x20001a08   0x0000010c   Code   RO          188    i.rd_adj_form_flash_to_64x64_1  main_test.o
    0x20001b14   0x000001b4   Code   RO          189    i.rd_adj_form_flash_to_64x64_2  main_test.o
    0x20001cc8   0x00000076   Code   RO          190    i.read_flash        main_test.o
    0x20001d3e   0x000001bc   Code   RO          308    i.set_phy_config    ar8035.o
    0x20001efa   0x00000400   Data   RO          493    .constdata          hyhwgpio.o
    0x200022fa   0x00000002   PAD
    0x200022fc   0x00000020   Data   RO          789    Region$$Table       anon$$obj.o


    Execution Region RW_IRAM1 (Base: 0x20006000, Size: 0x00000860, Max: 0x00002000, ABSOLUTE)

    Base Addr    Size         Type   Attr      Idx    E Section Name        Object

    0x20006000   0x0000005c   Data   RW          192    .data               main_test.o
    0x2000605c   0x00000001   Data   RW          309    .data               ar8035.o
    0x2000605d   0x00000003   PAD
    0x20006060   0x00000400   Zero   RW          191    .bss                main_test.o
    0x20006460   0x00000400   Zero   RW          399    STACK               startup_scm3.o


==============================================================================

Image component sizes


      Code (inc. data)   RO Data    RW Data    ZI Data      Debug   Object Name

      1104         40          0          1          0       8599   ar8035.o
      1060         66          0          0          0       7692   hyhw_spiflash.o
       388         10          0          0          0       1317   hyhwdma.o
       416         36       1024          0          0       7662   hyhwgpio.o
        32          6          0          0          0        449   hyhwtimer.o
        60          8          0          0          0       1073   hyhwuart.o
      4406        336          0         92       1024      16822   main_test.o
       150         14          0          0          0      33702   scm3_it.o
        32          6        120          0       1024        868   startup_scm3.o

    ----------------------------------------------------------------------
      7652        522       1178         96       2048      78184   Object Totals
         0          0         32          0          0          0   (incl. Generated)
         4          0          2          3          0          0   (incl. Padding)

    ----------------------------------------------------------------------

      Code (inc. data)   RO Data    RW Data    ZI Data      Debug   Library Member Name

         0          0          0          0          0          0   entry.o
         0          0          0          0          0          0   entry10a.o
         0          0          0          0          0          0   entry11a.o
         8          4          0          0          0          0   entry2.o
         4          0          0          0          0          0   entry5.o
         0          0          0          0          0          0   entry7b.o
         0          0          0          0          0          0   entry8b.o
         8          4          0          0          0          0   entry9a.o
        30          0          0          0          0          0   handlers.o
        36          8          0          0          0         68   init.o
        36          0          0          0          0         68   memcpya.o
        36          0          0          0          0        108   memseta.o

    ----------------------------------------------------------------------
       158         16          0          0          0        244   Library Totals
         0          0          0          0          0          0   (incl. Padding)

    ----------------------------------------------------------------------

      Code (inc. data)   RO Data    RW Data    ZI Data      Debug   Library Name

       158         16          0          0          0        244   mc_w.l

    ----------------------------------------------------------------------
       158         16          0          0          0        244   Library Totals

    ----------------------------------------------------------------------

==============================================================================


      Code (inc. data)   RO Data    RW Data    ZI Data      Debug   

      7810        538       1178         96       2048      75512   Grand Totals
      7810        538       1178         96       2048      75512   ELF Image Totals
      7810        538       1178         96          0          0   ROM Totals

==============================================================================

    Total RO  Size (Code + RO Data)                 8988 (   8.78kB)
    Total RW  Size (RW Data + ZI Data)              2144 (   2.09kB)
    Total ROM Size (Code + RO Data + RW Data)       9084 (   8.87kB)

==============================================================================

